:100000001FC0EFC3EEC3EDC3ECC3EBC3EAC3E9C348
:1000100024C3E7C3E6C3E5C3E4C3E3C3E2C3E1C368
:10002000E0C3DFC3DEC3DDC3DCC3DBC3DAC3D9C3D4
:10003000D8C3D7C33F003F19803F193F1A0007ECD0
:1000400011241FBECFEFCDBFDFE3DEBFE4E3F0E05E
:1000500040E017C0B591A59135912591059107FD17
:100060000CC095918591EF01F92FE82F05900D9225
:10007000A217B307D9F7FE0104C01D92A217B30758
:10008000E1F7E034F40731F7A7D1A0C3F894FFCF2C
:1000900080000000008000000000FF00000000FF62
:1000A00000000000FF00000000FF00000000FF0053
:1000B00000000080000000000000000000000000C0
:1000C0000000000000000000000000000000000030
:1000D0000000000000000000000000000000000020
:1000E0000000000000000000000000000000000010
:1000F0000000000000000000000000000000000000
:1001000000000000000000000000001010000000CF
:10011000101000000020220000002020000000300D
:1001200030000000404000000040400000006060DF
:1001300000000060600000008080000000808000FF
:1001400000009090000000A4A4000000A4A40000FF
:1001500000C4C4000000C4C4000000FFFF00000091
:10016000FFFF000000FFFF000000FFFF000000FF96
:10017000FF000000FFFF000000FFFF000000FFFF86
:10018000000000FFFF000000FFFF000000FFFF0075
:100190000000FFFF000000FFFF000000FFFF000065
:0801A00000FFFF000000FFFF5B
:1001A80080000000008000000000FF00000000FF49
:1001B80000000000FF00000000FF00000000FF003A
:1001C80000000080000000000000000000000000A7
:1001D8000000000000000000000000000000000017
:1001E8000000000000000000000000000000000007
:1001F80000000000000000000000000000000000F7
:1002080000000000000000000000000000000000E6
:1002180000000000000000000000100010000010A6
:100228000010000020002200002000200000300004
:1002380030000040004000004000400000600060C6
:1002480000006000600000800080000080008000E6
:10025800009000900000A400A40000A400A40000E6
:10026800C400C40000C400C40000FF00FF0000FF79
:1002780000FF0000FF00FF0000FF00FF0000FF007C
:10028800FF0000FF00FF0000FF00FF0000FF00FF6D
:100298000000FF00FF0000FF00FF0000FF00FF005C
:1002A80000FF00FF0000FF00FF0000FF00FF00004C
:0802B800FF00FF0000FF00FF42
:1002C00080000000008000000000FF00000000FF30
:1002D00000000000FF00000000FF00000000FF0021
:1002E000000000800000000000000000000000008E
:1002F00000000000000000000000000000000000FE
:1003000000000000000000000000000000000000ED
:1003100000000000000000000000000000000000DD
:1003200000000000000000000000000000000000CD
:10033000000000000000000000101000000010107D
:1003400000000020220000002020000000303000CB
:1003500000004040000000404000000060600000DD
:1003600000606000000080800000008080000000CD
:100370009090000000A4A4000000A4A4000000C409
:10038000C4000000C4C4000000FFFF000000FFFF25
:10039000000000FFFF000000FFFF000000FFFF0063
:1003A0000000FFFF000000FFFF000000FFFF000053
:1003B00000FFFF000000FFFF000000FFFF00000043
:1003C000FFFF000000FFFF000000FFFF000000FF34
:0803D000FF000000FFFF000028
:1003D8008EEC8093000488E08093100411B810928A
:1003E800010A1092020A1092030A81E080930A0A15
:1003F8008BEE9FEF8093200A9093210A8FEF9FEF57
:100408008093260A9093270A85E08093000A80E06B
:1004180090E0D0D18093133F882321F0813009F4F4
:1004280016C180EF8093123F7894C12C992493943D
:10043800C1E0312C31E0632E3FE3732E42E0D42E2D
:1004480057E0552E6EECA62E76E8872EE8ECBE2EE9
:100458005FD18130F9F0823009F4B2C08091193F40
:10046800813069F18091133F882391F38091123F85
:1004780090E02091103F3091113F2817390740F341
:10048800C110E6CF9C2ECC24C394C0E0312C40D1BF
:10049800813009F7C1108DC0CF5FC3708FB7F89452
:1004A800D092193F8FBF1092103F1092113FC12C6C
:1004B8008091193F813009F47EC0312CD3CF339419
:1004C80087E3831508F0BCC08091103F9091113FDD
:1004D80001968093103F9093113F80E090E0312C7B
:1004E800EC2FF0E0EE0FFF1FE652F8472081318134
:1004F800280F391F7901FFEFEF1AFF0A89010E5FF4
:100508001F4FB9016D5F7F4FA9014C5F5F4FA8E096
:10051800BFE380E090E038C0D0E0F7012490E22DFE
:10052800F0E0042C02C0F695E7950A94E2F7E0FDA6
:10053800D460F8012490E22DF0E0042C02C0F69576
:10054800E7950A94E2F7E0FDD064FB012490E22DE0
:10055800F0E0042C02C0F695E7950A94E2F7E0FD76
:10056800D260FA012490E22DF0E002C0F695E795FA
:100578004A94E2F7E0FDD860C11101C0D0E0DE93F3
:1005880001968830910579F0F901D491482EED2F24
:10059800F0E0082E02C0F695E7950A94E2F7E0FF2E
:1005A800BBCFD0E8BACF8FB7F894D092193F8FBF9E
:1005B80059CFC92D73CF85E090E03324339490CF81
:1005C800F301252D11922A95E9F721E080E00AC070
:1005D800B092003F813059F1211110C099D020E02C
:1005E8008230A9F09091133F992391F3913019F13A
:1005F800A092003F813081F71092133F8FB7F89493
:10060800D092193F8FBF84D020E0823059F7609193
:10061800133F80E090E0BBD08091133F882371F0B6
:10062800813099F080EF8093123F9C2E41CF9F5FDD
:100638009093133FE3CF8092003FCCCF80E0F3CF7D
:10064800E5E03E9EC00111244BCF8CE3ECCF8CE358
:02065800E9CEE9
:10065A000F920FB60F921F9211248F939F93AF930D
:10066A00BF93EF93FF938091183F883090F01092D8
:10067A00183F8091143F8F5F863090F11092143F9B
:10068A008091163F8F5F8093163F8091193F823089
:10069A0051F1E091183FF0E0EE0FFF1FE455F847E3
:1006AA00808191818093200A9093210AE091183FDA
:1006BA00F0E0E85FF04C808181B98091183F8F5F4C
:1006CA008093183F81E080930B0AFF91EF91BF91CD
:1006DA00AF919F918F911F900F900FBE0F90189519
:1006EA008093143FD6CFE091183FF0E0E050F14CF0
:1006FA00808181B988E0E0E0FFE3A8E0BFE30190F0
:0E070A000D928A95E1F781E08093193FC2CFEE
:100718008091173F81110BC010991DC081E0809313
:10072800173F8091163F8093153F80E008958230EF
:10073800A1F09091163F8091153F981B109906C023
:10074800993C48F082E08093173F08951092173F34
:1007580081E0943008F480E00895109BFCCF10925B
:06076800173F80E0089538
:10076E00262FAF93BF93E0E0F0E1328131FDFDCF54
:10077E00DC01A050BC4E2C933DE934BF23E0208316
:08078E000196BF91AF9108959F
:10079600262F0E94E2030080021619F00E94B80379
:0607A60001970197089580
:1007AC00FFF5FFFA7FFDBFFE5FFFAFFFD7FFEBFF4B
:1007BC0003D0808199270895FC01E050FC4E0895E8
:0E07CC00EC010BD009D0CE0109D0CE0108D02F
:0807DA00C002C002A80190005A
:0207E2000ECC3B
:0207E400089576
:0207E600089574
:0207E800089572
:0207EA0050DCE1
:0107EC00010B
:00000001FF
